:100000000C945C000C946E000C946E000C946E00CA
:100010000C946E000C946E000C946E000C946E00A8
:100020000C946E000C946E000C946E000C946E0098
:100030000C946E000C946E000C946E000C946E0088
:100040000C944B010C946E000C946E000C946E009A
:100050000C946E000C946E000C946E000C946E0068
:100060000C9495010C946E00000000002400270001
:100070002A0000000000250028002B0004040404CE
:100080000404040402020202020203030303030342
:10009000010204081020408001020408102001021F
:1000A00004081020000000080002010000030407FB
:1000B000000000000000000011241FBECFEFD8E0B8
:1000C000DEBFCDBF21E0A0E0B1E001C01D92A637A8
:1000D000B207E1F70E94B0020C9472030C94000086
:1000E00090E0FC01EC55FF4F2491FC01E057FF4FDD
:1000F0003491FC01E458FF4FE491EE23C9F0222330
:1001000039F0233001F1A8F4213019F1223029F11E
:10011000F0E0EE0FFF1FEE58FF4FA591B4918FB79F
:10012000F894EC91611126C030953E233C938FBF2B
:1001300008952730A9F02830C9F0243049F780917C
:1001400080008F7D03C0809180008F778093800036
:10015000DFCF84B58F7784BDDBCF84B58F7DFBCFB8
:100160008091B0008F778093B000D2CF8091B000A3
:100170008F7DF9CF3E2BDACFCF93DF9390E0FC0158
:10018000E057FF4F249184589F4FFC0184918823AE
:10019000D1F090E0880F991FFC01E859FF4FA5911D
:1001A000B491FC01EE58FF4FC591D49161110EC07E
:1001B0009FB7F8948C91E22FE0958E238C93288141
:1001C000E223E8839FBFDF91CF9108958FB7F89422
:1001D000EC91E22BEC938FBFF6CF85ED8093BC00C2
:1001E0008091BC0084FDFCCF1092450108952091C0
:1001F0002101260F3327331F21323105ECF42091E2
:100200004501FC0190E080E0243069F082E008952F
:10021000A09121012191AC014F5F5E4FA40FB52F3A
:10022000B11D2C930196861798F380912101680FD8
:100230006093210180E0089581E0089508958FEF93
:100240009FEF08958FEF9FEF08958091000190E058
:100250009195819591090895CF93DF93CB01EA01A0
:10026000642F0E94F700CE01DF91CF910895CF93C4
:10027000DF931F92CDB7DEB7698361E0CE010196AF
:100280000E94F70081E090E00F90DF91CF910895F8
:1002900090E080E008951F920F920FB60F92112404
:1002A0002F933F938F939F93AF93BF93809172014E
:1002B00090917301A0917401B09175013091710119
:1002C00023E0230F2D3758F50196A11DB11D209372
:1002D00071018093720190937301A0937401B093A4
:1002E000750180916D0190916E01A0916F01B091A7
:1002F00070010196A11DB11D80936D0190936E0157
:10030000A0936F01B0937001BF91AF919F918F91B6
:100310003F912F910F900FBE0F901F90189526E8D8
:10032000230F0296A11DB11DD2CF1F920F920FB6BF
:100330000F9211242F933F934F935F936F937F936B
:100340008F939F93AF93BF93EF93FF938091B900E7
:10035000887F803609F44AC0F0F5883209F4A5C0D8
:1003600018F5803109F499C0B8F4882309F4F5C070
:10037000883009F492C0FF91EF91BF91AF919F91A6
:100380008F917F916F915F914F913F912F910F903E
:100390000FBE0F901F901895883109F486C08032E7
:1003A00051F78093440114C0803409F49BC040F499
:1003B0008033B9F38833F9F68093440185ECAEC0FD
:1003C000803509F483C0883509F494C0883499F6DF
:1003D0000E94ED00D0CF883909F48AC038F58837FB
:1003E00029F050F4883611F0803729F683E08093A5
:1003F00045011092430155C0883809F479C080390D
:1004000019F0803809F0B7CF80914301803208F0AD
:100410006FC0E091430181E08E0F80934301809192
:10042000BB00F0E0ED5DFE4F80833BC0803B39F0C8
:10043000D0F4803A09F477C0883A09F09CCF84E080
:10044000809345011092220110922101F0E0E0E03A
:1004500009958091210181110FC081E080932101D4
:100460001092010109C0803C09F4A8CF883C09F42E
:10047000A5CF883B09F07FCFE091220181E08E0F6C
:1004800080932201F0E0EF5FFE4F80818093BB00FC
:10049000909122018091210129C080916A0180936D
:1004A000BB0085EC8093BC0066CF90916901809180
:1004B0006801981758F5E091690181E08E0F8093EB
:1004C0006901F0E0E85BFE4F8081E9CFE0916901CE
:1004D00081E08E0F809369018091BB00F0E0E85BC2
:1004E000FE4F808390916901809168019817C8F24E
:1004F00085E8D8CFE091690181E08E0F8093690192
:100500008091BB00F0E0E85BFE4F80838091470163
:1005100081115ECF81E08093460184EA8093BC0024
:100520001092450128CF85EC8093BC0010924501C4
:1005300080914301803230F4E0914301F0E0ED5DC1
:10054000FE4F10826091430170E083E291E0F0E0A1
:10055000E0E00995109243010ECF1092440138CF8C
:10056000789484B5826084BD84B5816084BD85B58E
:10057000826085BD85B5816085BD80916E0081609A
:1005800080936E0010928100809181008260809340
:100590008100809181008160809381008091800042
:1005A0008160809380008091B10084608093B1006D
:1005B0008091B00081608093B00080917A00846067
:1005C00080937A0080917A00826080937A00809193
:1005D0007A00816080937A0080917A0080688093AD
:1005E0007A001092C10002E010E080E0E82E80E086
:1005F000F82E80916B0190916C01EC012196D093C3
:100600006C01C0936B01B8010E944A030097B1F0DE
:10061000019749F1C838D341A9F561E08EE00E9405
:10062000BC0061E080E10E94BC0061E08EE00E94BD
:10063000700060E080E10E947000FFCF60E08EE01B
:100640000E94BC0061E08FE00E94BC0061E080E19C
:100650000E94BC0061E080E10E94700060E08FE0D9
:100660000E947000D7CF60E080E10E94700060E0DF
:100670008FE00E94BC0061E08EE00E94BC0061E05F
:100680008EE0EECFE114F10409F4B3CF0E94000034
:10069000B0CF089597FB072E16F4009407D077FD8E
:1006A00009D00E945E0307FC05D03EF49095819529
:1006B0009F4F0895709561957F4F0895AA1BBB1BAE
:1006C00051E107C0AA1FBB1FA617B70710F0A61B52
:1006D000B70B881F991F5A95A9F780959095BC0173
:0806E000CD010895F894FFCF4D
:00000001FF
